:020000021000EC
:100134002F6C69622F6C642D6C696E75782D6172F9
:090144006D68662E736F2E330006
:10015000040000001000000001000000474E5500A0
:100160000000000002000000060000002000000067
:10017000040000001400000003000000474E55007A
:1001800066CAD45364CFC58AA7ED19EA8E61A3D39A
:0401900042E0933C7A
:100194006100000070000000560000000000000034
:1001A40000000000000000005B00000000000000F0
:1001B4005100000062000000480000006C000000D4
:1001C4002F0000004C000000320000004D00000031
:1001D4006100000000000000430000003100000046
:1001E4005E0000005A0000000100000069000000E9
:1001F4000000000000000000000000006F0000008C
:10020400000000006A00000064000000000000001C
:1002140000000000000000000000000026000000B4
:1002240049000000000000005400000045000000E8
:100234005C00000014000000000000001A00000030
:10024400000000000000000050000000000000005A
:100254000000000058000000000000001F00000023
:1002640041000000360000005F00000000000000B4
:1002740063000000000000006B0000003700000075
:100284003B000000000000004700000027000000C1
:10029400000000000000000030000000000000002A
:1002A4000000000011000000000000002E0000000B
:1002B4000000000035000000570000006D00000041
:1002C400000000006800000000000000670000005B
:1002D400460000006600000010000000000000005E
:1002E4000C0000004F00000040000000000000006F
:1002F4000000000000000000210000006E0000006B
:100304003800000059000000000000002800000030
:100314003E0000000800000065000000000000002E
:1003240000000000000000000000000000000000C9
:1003340000000000000000000000000000000000B9
:1003440000000000000000000000000000000000A9
:100354000000000000000000070000000000000092
:1003640000000000000000000F000000000000007A
:10037400000000000600000000000000040000006F
:100384000000000000000000170000000000000052
:100394000000000016000000000000000000000043
:1003A4000B000000000000000D000000020000002F
:1003B4000000000000000000000000002200000017
:1003C4000000000000000000000000000000000029
:1003D40019000000230000000000000000000000DD
:1003E4000000000000000000000000000000000009
:1003F4002C00000000000000240000001B0000008E
:10040400130000001C000000000000001E0000009B
:100414000000000000000000340000002A0000007A
:10042400000000003C000000000000002500000067
:100434002D000000000000000A0000003D00000044
:100444001800000000000000150000002B00000050
:10045400330000000500000003000000000000005D
:100464000000000020000000000000000000000068
:10047400440000001D0000000E0000000000000009
:10048400520000003A0000000000000012000000CA
:1004940000000000090000004E0000005D000000A4
:1004A4004A000000000000003F000000530000006C
:1004B4005500000000000000600000004B00000038
:1004C40029000000420000000000000000000000BD
:0C04D400000000003900000000000000E3
:1004E000000000000000000000000000000000000C
:1004F000F90A0000F88D020000000000000018005A
:10050000260B00007C8E0200000000000000190095
:100510001A0B00007C8E0200000000000000190091
:100520001B0B00007C8E0200000000000000190080
:100530000C0B0000F88D0200000000000000190004
:100540002E0B00007C8E020000000000000019004D
:10055000000B0000F88D02000000000000001900F0
:10056000E80700000000000000000000120000008A
:10057000C50800000000000000000000120000009C
:10058000B4010000000000000000000012000000A4
:10059000CB08000000000000000000001200000076
:1005A000B800000000000000000000002200000071
:1005B0006E040000000000000000000012000000B7
:1005C000CC0A000000000000000000001200000043
:1005D00040040000000000000000000012000000C5
:1005E000960900000000000000000000120000005A
:1005F0009002000000000000000000001200000057
:100600006305000000000000000000001200000070
:10061000F6000000000000000000000012000000D2
:10062000A201000000000000000000001200000015
:100630001102000000000000000000001200000095
:100640006401000000000000000000001200000033
:1006500086060000000000000000000012000000FC
:10066000390500000000000000000000120000003A
:10067000F60400000000000000000000120000006E
:100680000B0300000000000000000000120000004A
:10069000BB0A000000000000000000001200000083
:1006A000D80A000000000000000000001200000056
:1006B000030700000000000000000000120000001E
:1006C000900A00000000000000000000120000007E
:1006D0004E0A0000000000000000000012000000B0
:1006E0005B0000000000000000000000220000008D
:1006F000BB050000CC1D010000000000120000003E
:10070000FD010000000000000000000012000000D9
:100710007C05000000000000000000001200000046
:10072000FD080000000000000000000012000000B2
:10073000AE000000000000000000000012000000F9
:10074000730A00000000000000000000120000001A
:10075000DD060000F88D02002C00000011001900D9
:10076000D2000000000000000000000012000000A5
:1007700009010000147601000000000012000E00C4
:100780005002000000000000000000001200000005
:10079000600A0000000000000000000012000000DD
:1007A000530A0000000000000000000012000000DA
:1007B0008B07000000000000000000001200000095
:1007C00069000000000000000000000012000000AE
:1007D0000F010000000000000000000012000000F7
:1007E000830900000000000000000000120000006B
:1007F0005A0A000000000000000000001200000083
:10080000DE090000000000000000000012000000EF
:10081000D9010000000000000000000011000000ED
:100820007D04000000000000000000001200000035
:10083000A30A0000000000000000000012000000F9
:10084000E9030000000000000000000012000000AA
:10085000B00A0000000000000000000012000000CC
:10086000440A000000000000000000001200000028
:100870002F0A00000000000000000000120000002D
:100880001F06000000000000000000001200000031
:1008900076030000000000000000000012000000CD
:1008A00048070000000000000000000012000000E7
:1008B000D302000000000000000000001200000051
:1008C000D70000000000000000000000220000002F
:1008D0006F00000000000000000000001200000097
:1008E000B40600000000000000000000120000003C
:1008F000840A000000000000000000001200000058
:100900009C0A0000288E020004000000110019005B
:100910007A0A000000000000000000001200000041
:10092000DB070000000000000000000012000000D3
:100930001E010000801C01000000000012000B00DE
:10094000F50500000000000000000000120000009B
:10095000210A00000000000000000000120000005A
:10096000F00900000000000000000000120000007C
:100970002D0000000000000000000000200000002A
:10098000A6090000000000000000000012000000A6
:10099000F30A000000000000000000001200000048
:1009A0002401000000000000000000001200000010
:1009B0007A080000000000000000000012000000A3
:1009C0005A0900002C8E02002C00000011001900B2
:1009D00019090000000000000000000012000000E3
:1009E0007D03000000000000000000001200000075
:1009F000CC06000000000000000000001200000013
:100A0000B708000000000000000000001200000015
:100A1000A90A000000000000000000001200000011
:100A20002608000000000000000000001200000086
:100A3000360A000000000000000000001200000064
:100A4000380100000000000000000000120000005B
:100A50006C0A00000000000000000000120000000E
:100A6000300700000000000000000000120000003D
:100A7000CB00000000000000000000001200000099
:100A8000BA0A000000000000000000001200000090
:100A900073060000000000000000000012000000CB
:100AA0003C0A0000000000000000000012000000EE
:100AB000000A00000000000000000000120000001A
:100AC000890A0000588E020004000000110019007D
:100AD000630600000000000000000000120000009B
:100AE000E10400000000000000000000120000000F
:100AF00089000000602001000000000012000000DA
:100B00001C030000000000000000000012000000B4
:100B10006608000000000000000000001200000055
:100B2000C20A0000000000000000000012000000E7
:100B3000980000000000000000000000120000000B
:100B4000A9000000000000000000000012000000EA
:100B50001100000000000000000000002000000064
:100B6000280A000000000000000000001200000041
:100B7000DC03000000000000000000001200000084
:100B8000E10A000000000000000000001200000068
:100B900046010000000000000000000020000000EE
:100BA0002D040000D8200100000000001200000009
:100BB00041000000000000000000000020000000D4
:100BC000740000000000000000000000220000008F
:100BD00007060000F02001000000000012000000E5
:100BE000006C6962707468726561642E736F2E3078
:100BF000005F49544D5F646572656769737465721F
:100C0000544D436C6F6E655461626C65005F4A764B
:100C10005F5265676973746572436C617373657362
:100C2000005F49544D5F7265676973746572544D16
:100C3000436C6F6E655461626C65007074687265B8
:100C400061645F657175616C00636C6F7365006FE3
:100C500070656E00707468726561645F6D7574654F
:100C6000785F756E6C6F636B007074687265616439
:100C70005F637265617465005F5F6572726E6F5F5E
:100C80006C6F636174696F6E0073656E64006E6192
:100C90006E6F736C65657000707468726561645F17
:100CA0006D757465785F6C6F636B0061636365700D
:100CB000740072656376005F5F707468726561646A
:100CC0005F6B65795F637265617465006C696273FF
:100CD0006D6C2E736F00736D6C5F7472616E7370E8
:100CE0006F72745F72656164005F66696E6900733C
:100CF0006D6C5F66696C655F7061727365005F69DA
:100D00006E697400736D6C5F76616C75655F746F8E
:100D10005F646F75626C6500736D6C5F66696C65AE
:100D20005F66726565005F5F676D6F6E5F737461AC
:100D300072745F5F006C6962737464632B2B2E7333
:100D40006F2E36005F5A4E5374375F5F6378783189
:100D500031313262617369635F737472696E6749BE
:100D60006353743131636861725F74726169747363
:100D7000496345536149634545433145524B5334BB
:100D80005F005F5F6378615F626567696E5F636183
:100D9000746368005F5A4E5374366368726F6E6F87
:100DA000335F5632313273797374656D5F636C6F84
:100DB000636B336E6F774576005F5A54494E31301E
:100DC0005F5F637878616269763131355F5F666F46
:100DD000726365645F756E77696E6445005F5A4E35
:100DE0005374366C6F63616C65433145524B535F8E
:100DF000005F5A4E4B5374375F5F637878313131FF
:100E00003262617369635F737472696E67496353B9
:100E1000743131636861725F7472616974734963BC
:100E20004553614963454535635F73747245760088
:100E30005F5A4E5374375F5F63787831313138626F
:100E4000617369635F737472696E677374726561ED
:100E50006D496353743131636861725F74726169A3
:100E60007473496345536149634545443145760090
:100E70005F5A4E4B5374375F5F637878313131324C
:100E800062617369635F737472696E6749635374F7
:100E90003131636861725F7472616974734963456B
:100EA00053614963454537636F6D706172654550A5
:100EB0004B63005F5A53746C7349537431316368E8
:100EC00061725F747261697473496345455253740A
:100ED000313362617369635F6F73747265616D4909
:100EE00063545F4553355F504B63005F5A4E536FF9
:100EF0003673656E74727944314576005F5A537467
:100F0000397573655F6661636574495374387469D4
:100F10006D655F7075744963537431396F737472A2
:100F200065616D6275665F6974657261746F72493F
:100F30006353743131636861725F74726169747391
:100F4000496345454545524B545F524B5374366C8B
:100F50006F63616C65005F5A646C5076005F5A4E37
:100F60004B53743874696D655F707574496353745D
:100F700031396F73747265616D6275665F6974652E
:100F80007261746F72496353743131636861725F67
:100F9000747261697473496345454533707574456E
:100FA00053335F52537438696F735F626173656363
:100FB000504B32746D504B6353425F005F5A4E5337
:100FC0006149634543314576005F5A4E537431336E
:100FD00062617369635F6673747265616D496353BF
:100FE000743131636861725F7472616974734963EB
:100FF0004545346F70656E45504B63537431335FB4
:10100000496F735F4F70656E6D6F6465005F5F63FE
:1010100078615F707572655F7669727475616C0076
:101020005F5A4E5374313362617369635F667374E0
:101030007265616D496353743131636861725F74C5
:1010400072616974734963454544314576005F5F59
:1010500061656162695F617465786974005F5A53A4
:10106000746C73496353743131636861725F747275
:1010700061697473496345536149634545525374CB
:10108000313362617369635F6F73747265616D4957
:10109000545F54305F4553375F524B4E5374375F44
:1010A0005F6378783131313262617369635F737481
:1010B00072696E674953345F53355F54315F4545FC
:1010C000005F5F6778785F706572736F6E616C69DF
:1010D00074795F7630005F5A4E5374396261736978
:1010E000635F696F73496353743131636861725F21
:1010F0007472616974734963454531315F4D5F7343
:101100006574737461746545537431325F496F73EC
:101110005F496F7374617465005F5A4E4B53743945
:1011200062617369635F696F7349635374313163DB
:101130006861725F747261697473496345456E7466
:101140004576005F5A537431375F5F7468726F770A
:101150005F6261645F616C6C6F6376005F5A4E53CF
:10116000743962617369635F696F73496353743182
:1011700031636861725F7472616974734963454574
:1011800038736574737461746545537431325F49A3
:101190006F735F496F7374617465005F5A4E537467
:1011A000375F5F6378783131313262617369635FD1
:1011B000737472696E674963537431316368617225
:1011C0005F7472616974734963455361496345454E
:1011D00044314576005F5F6378615F656E645F638D
:1011E0006C65616E7570005F5A4E537438696F7329
:1011F0005F6261736534496E697444314576005F9E
:101200005A4E53743674687265616431355F4D5F50
:1012100073746172745F746872656164455374318C
:10122000307368617265645F707472494E535F31E8
:10123000305F496D706C5F626173654545504676FD
:101240007645005F5F6378615F656E645F636174BC
:101250006368005F5A4E4B536F3673656E747279D4
:101260006376624576005F5A4E4B53743962617300
:1012700069635F696F734963537431316368617285
:101280005F74726169747349634545357264627550
:10129000664576005F5A4E4B537439747970655FBA
:1012A000696E666F657145524B535F005F5A4E53CE
:1012B00074366C6F63616C6544314576005F5A54D7
:1012C000564E31305F5F63787861626976313137CD
:1012D0005F5F636C6173735F747970655F696E667D
:1012E0006F45005F5A4E4B53743962617369635F97
:1012F000696F73496353743131636861725F7472EB
:1013000061697473496345453466696C6C45760060
:101310005F5A4E537438696F735F62617365344905
:101320006E697443314576005F5A4E4B5374375F94
:101330005F6378783131313862617369635F7374E8
:1013400072696E6773747265616D4963537431318C
:10135000636861725F747261697473496345536154
:1013600049634545337374724576005F5A4E537432
:10137000375F5F6378783131313862617369635FF9
:10138000737472696E6773747265616D49635374C7
:101390003131636861725F74726169747349634566
:1013A000536149634545433145537431335F496F58
:1013B000735F4F70656E6D6F6465005F5A4E536169
:1013C00049634544314576005F5A4E5374375F5F39
:1013D0006378783131313262617369635F7374723B
:1013E000696E67496353743131636861725F747207
:1013F0006169747349634553614963454561534568
:10140000524B53345F005F5A4E4B5374375F5F63E8
:1014100078783131313262617369635F73747269F4
:101420006E67496353743131636861725F747261CE
:10143000697473496345536149634545366C656E0C
:101440006774684576005F5A4E53743674687265E7
:101450006164346A6F696E4576005F5A4E53743723
:101460005F5F6378783131313262617369635F73D2
:101470007472696E67496353743131636861725F76
:101480007472616974734963455361496345456189
:1014900053454F53345F005F5F6378615F726574DB
:1014A00068726F77005F5A6E776A005F5A4E5374A6
:1014B000313362617369635F6673747265616D492C
:1014C0006353743131636861725F747261697473FC
:1014D0004963454535636C6F73654576005F5A53C4
:1014E0007432305F5F7468726F775F73797374659D
:1014F0006D5F6572726F7269005F5A4E5374375F29
:101500005F6378783131313262617369635F73741C
:1015100072696E67496353743131636861725F74D5
:101520007261697473496345536149634545433149
:1015300045504B63524B53335F005F5A54564E3104
:10154000305F5F637878616269763132305F5F73F4
:10155000695F636C6173735F747970655F696E66F0
:101560006F45005F5A4E536F3673656E74727943E0
:10157000314552536F005F5A5374397465726D6907
:101580006E61746576005F5A4E53743133626173D5
:1015900069635F6673747265616D49635374313159
:1015A000636861725F74726169747349634545432E
:1015B000314576006C69626D2E736F2E3600706F48
:1015C00077006C69626763635F732E736F2E3100FF
:1015D0005F5F61656162695F6C6469766D6F64000D
:1015E0005F5F61656162695F756E77696E645F6395
:1015F00070705F707231006C6962632E736F2E368B
:1016000000736F636B65740066666C757368007356
:1016100074726370790068746F6E730073707269AE
:101620006E746600696E65745F6E746F61007075CC
:101630007473006C697374656E0061626F7274001C
:101640006366736574697370656564007374726C46
:10165000656E006D656D73657400746373657461A8
:101660007474720062696E64007374646F757400E0
:10167000676574706565726E616D6500737464652D
:10168000727200696F63746C0066777269746500CA
:101690006C6F63616C74696D6500667072696E74FD
:1016A0006600746367657461747472006366736561
:1016B000746F7370656564007374726572726F72B3
:1016C000005F5F6C6962635F73746172745F6D6108
:1016D000696E006E746F6873005F656461746100A9
:1016E0005F5F6273735F7374617274005F5F6273D4
:1016F000735F73746172745F5F005F5F6273735FC7
:10170000656E645F5F005F5F656E645F5F005F656D
:101710006E64004743435F332E3500474C494243D4
:101720005F322E34004358584142495F312E332EE8
:101730003200474C49424358585F332E342E3131E2
:10174000004358584142495F312E330043585841B5
:1017500042495F41524D5F312E332E3300474C4991
:10176000424358585F332E342E313900474C49429A
:101770004358585F332E3400474C49424358585F12
:07178000332E342E3231003C
:10178800000001000100010001000100010001004A
:101798000200030004000300050006000700030020
:1017A800030002000300000008000200020003001A
:1017B80003000300030007000700030007000700F9
:1017C80005000200030003000900050007000800E7
:1017D80005000100020007000700020005000000E4
:1017E800030007000A000B000200070003000700BF
:1017F80007000700020003000200030005000500BF
:1018080003000700070007000300010008000700A5
:101818000C0000000300070000000200080002009E
:10182800030003000800070002000700000007008B
:10183800030005000700030007000C00070008006C
:101848000800050003000900070005000500000066
:10185800070003000700000008000000050003005F
:1018680001000100E2090000100000002000000053
:101878005526790B00000C00330B00000000000017
:1018880001000100D4090000100000002000000041
:101898001469690D00000A003B0B000000000000FD
:1018A80001000100170A00001000000020000000DD
:1018B8001469690D000007003B0B000000000000E0
:1018C80001000100010000001000000020000000DD
:1018D8001469690D000005003B0B000000000000C2
:1018E8000100070055010000100000000000000082
:1018F80072D1AF0B00000B00450B00001000000078
:1019080061F8970200000900520B00001000000067
:10191800D3AF6B0500000800610B00001000000049
:10192800A3AF4908000006006C0B0000100000007F
:1019380069F89702000004007D0B00001000000009
:1019480074299208000003008C0B000010000000AE
:1019580071F8970200000200980B000000000000D8
:10196800EC8D020015330000F08D0200156B0000AD
:10197800F88D020014270000288E0200144200008F
:101988002C8E0200144E0000588E0200145E0000D7
:10199800788C0200160800007C8C020016090000F2
:1019A800808C0200160A0000848C0200160B0000CE
:1019B800888C0200160C00008C8C0200160D0000AA
:1019C800908C0200160E0000948C0200160F000086
:1019D800988C0200161000009C8C02001611000062
:1019E800A08C020016120000A48C0200161300003E
:1019F800A88C020016140000AC8C0200161500001A
:101A0800B08C020016160000B48C020016170000F5
:101A1800B88C020016180000BC8C020016190000D1
:101A2800C08C0200161A0000C48C0200161B0000AD
:101A3800C88C0200161C0000CC8C0200161D000089
:101A4800D08C0200161E0000D48C0200161F000065
:101A5800D88C020016200000DC8C02001621000041
:101A6800E08C020016220000E48C0200162300001D
:101A7800E88C020016240000EC8C020016250000F9
:101A8800F08C020016260000F48C020016280000D4
:101A9800F88C0200162A0000FC8C0200162B0000AD
:101AA800008D0200162C0000048D0200162D000087
:101AB800088D0200162E00000C8D0200162F000063
:101AC800108D020016300000148D0200163100003F
:101AD800188D0200163200001C8D0200163400001A
:101AE800208D020016350000248D020016360000F5
:101AF800288D0200163700002C8D020016380000D1
:101B0800308D020016390000348D0200163A0000AC
:101B1800388D0200163B00003C8D0200163C000088
:101B2800408D0200163D0000448D0200163E000064
:101B3800488D0200163F00004C8D02001640000040
:101B4800508D020016410000548D0200164300001B
:101B5800588D0200164400005C8D020016460000F5
:101B6800608D020016470000648D020016480000D0
:101B7800688D0200164A00006C8D0200164B0000AA
:101B8800708D0200164C0000748D0200164D000086
:101B9800788D0200164F00007C8D02001650000060
:101BA800808D020016510000848D0200165200003C
:101BB800888D0200165300008C8D02001654000018
:101BC800908D020016550000948D020016560000F4
:101BD800988D0200165700009C8D020016580000D0
:101BE800A08D020016590000A48D0200165A0000AC
:101BF800A88D0200165B0000AC8D0200165C000088
:101C0800B08D0200165F0000B48D0200166000005F
:101C1800B88D020016610000BC8D0200166200003B
:101C2800C08D020016630000C48D02001664000017
:101C3800C88D020016650000CC8D020016660000F3
:101C4800D08D020016680000D48D020016690000CD
:101C5800D88D0200166A0000DC8D0200166B0000A9
:101C6800E08D0200166C0000E48D0200166E000084
:081C7800E88D0200166F000068
:0C1C800008402DE9290100EB0880BDE8B8
:101C8C0004E02DE504E09FE50EE08FE008F0BEE5F2
:101C9C00D06F010000C68FE216CA8CE2D0FFBCE503
:101CAC0000C68FE216CA8CE2C8FFBCE500C68FE204
:101CBC0016CA8CE2C0FFBCE500C68FE216CA8CE2E5
:101CCC00B8FFBCE500C68FE216CA8CE2B0FFBCE5DB
:101CDC0000C68FE216CA8CE2A8FFBCE500C68FE2F4
:101CEC0016CA8CE2A0FFBCE500C68FE216CA8CE2D5
:101CFC0098FFBCE500C68FE216CA8CE290FFBCE5EB
:101D0C0000C68FE216CA8CE288FFBCE500C68FE2E3
:101D1C0016CA8CE280FFBCE500C68FE216CA8CE2C4
:101D2C0078FFBCE500C68FE216CA8CE270FFBCE5FA
:101D3C0000C68FE216CA8CE268FFBCE500C68FE2D3
:101D4C0016CA8CE260FFBCE500C68FE216CA8CE2B4
:101D5C0058FFBCE500C68FE216CA8CE250FFBCE50A
:101D6C0000C68FE216CA8CE248FFBCE500C68FE2C3
:101D7C0016CA8CE240FFBCE500C68FE216CA8CE2A4
:101D8C0038FFBCE500C68FE216CA8CE230FFBCE51A
:101D9C0000C68FE216CA8CE228FFBCE500C68FE2B3
:101DAC0016CA8CE220FFBCE500C68FE216CA8CE294
:101DBC0018FFBCE500C68FE216CA8CE210FFBCE52A
:101DCC0000C68FE216CA8CE208FFBCE500C68FE2A3
:101DDC0016CA8CE200FFBCE500C68FE216CA8CE284
:101DEC00F8FEBCE500C68FE216CA8CE2F0FEBCE53C
:101DFC0000C68FE216CA8CE2E8FEBCE500C68FE294
:101E0C0016CA8CE2E0FEBCE500C68FE216CA8CE274
:101E1C00D8FEBCE500C68FE216CA8CE2D0FEBCE54B
:101E2C0000C68FE216CA8CE2C8FEBCE500C68FE283
:101E3C0016CA8CE2C0FEBCE500C68FE216CA8CE264
:101E4C00B8FEBCE500C68FE216CA8CE2B0FEBCE55B
:101E5C0000C68FE216CA8CE2A8FEBCE500C68FE273
:101E6C0016CA8CE2A0FEBCE500C68FE216CA8CE254
:101E7C0098FEBCE500C68FE216CA8CE290FEBCE56B
:101E8C0000C68FE216CA8CE288FEBCE500C68FE263
:101E9C0016CA8CE280FEBCE500C68FE216CA8CE244
:101EAC0078FEBCE500C68FE216CA8CE270FEBCE57B
:101EBC0000C68FE216CA8CE268FEBCE500C68FE253
:101ECC0016CA8CE260FEBCE500C68FE216CA8CE234
:101EDC0058FEBCE500C68FE216CA8CE250FEBCE58B
:101EEC0000C68FE216CA8CE248FEBCE500C68FE243
:101EFC0016CA8CE240FEBCE500C68FE216CA8CE224
:101F0C0038FEBCE500C68FE216CA8CE230FEBCE59A
:101F1C0000C68FE216CA8CE228FEBCE500C68FE232
:101F2C0016CA8CE220FEBCE500C68FE216CA8CE213
:101F3C0018FEBCE500C68FE216CA8CE210FEBCE5AA
:101F4C0000C68FE216CA8CE208FEBCE500C68FE222
:101F5C0016CA8CE200FEBCE500C68FE216CA8CE203
:101F6C00F8FDBCE500C68FE216CA8CE2F0FDBCE5BC
:101F7C0000C68FE216CA8CE2E8FDBCE500C68FE213
:101F8C0016CA8CE2E0FDBCE500C68FE216CA8CE2F4
:101F9C00D8FDBCE500C68FE216CA8CE2D0FDBCE5CC
:101FAC0000C68FE216CA8CE2C8FDBCE500C68FE203
:101FBC0016CA8CE2C0FDBCE500C68FE216CA8CE2E4
:101FCC00B8FDBCE500C68FE216CA8CE2B0FDBCE5DC
:101FDC0000C68FE216CA8CE2A8FDBCE500C68FE2F3
:101FEC0016CA8CE2A0FDBCE500C68FE216CA8CE2D4
:101FFC0098FDBCE500C68FE216CA8CE290FDBCE5EC
:10200C0000C68FE216CA8CE288FDBCE500C68FE2E2
:10201C0016CA8CE280FDBCE500C68FE216CA8CE2C3
:10202C0078FDBCE500C68FE216CA8CE270FDBCE5FB
:10203C0000C68FE216CA8CE268FDBCE500C68FE2D2
:10204C0016CA8CE260FDBCE500C68FE216CA8CE2B3
:10205C0058FDBCE500C68FE216CA8CE250FDBCE50B
:10206C0000C68FE216CA8CE248FDBCE500C68FE2C2
:10207C0016CA8CE240FDBCE500C68FE216CA8CE2A3
:10208C0038FDBCE500C68FE216CA8CE230FDBCE51B
:10209C0000C68FE216CA8CE228FDBCE500C68FE2B2
:1020AC0016CA8CE220FDBCE500C68FE216CA8CE293
:1020BC0018FDBCE500C68FE216CA8CE210FDBCE52B
:1020CC0000C68FE216CA8CE208FDBCE500C68FE2A2
:1020DC0016CA8CE200FDBCE500C68FE216CA8CE283
:1020EC00F8FCBCE500C68FE216CA8CE2F0FCBCE53D
:102100004FF0000B4FF0000E02BC6A4604B401B45D
:10211000DFF810C04DF804CD0348044BFFF7D0EFB3
:10212000FFF7A8EE1176010085710100D17501005D
:1021300014309FE514209FE503308FE0022093E7E1
:10214000000052E31EFF2F01DFFFFFEA2C6B0100AE
:1021500084010000074B48F6F850C0F202001B1A39
:10216000062B05D940F20003C0F2000303B1184763
:10217000704700BFFB8D020048F6F85348F6F85050
:10218000C0F20203C0F20200191A891001EBD171EA
:10219000491005D040F20003C0F2000303B1184714
:1021A000704700BF10B548F65C64C0F202042378A3
:1021B0001BB9FFF7CFFF0123237010BD48F658303D
:1021C00008B5C0F20200036813B9BDE80840D3E7C0
:1021D00040F20003C0F20003002BF6D09847F4E76A
:1021E00090B482B000AF786039603B68D3E90034C6
:1021F0007A68C2E900347B6818460837BD4690BC4F
:10220000704700BF90B400AF4FF000034FF00004E0
:1022100018462146BD4690BC704700BF90B482B0BE
:1022200000AF78607B68D3E9003418462146083750
:10223000BD4690BC704700BF90B482B000AF7860DC
:1022400039603B68D3E900347A68C2E900347B68BE
:1022500018460837BD4690BC704700BF90B482B0A6
:1022600000AF78607B68D3E9003418462146083710
:10227000BD4690BC704700BF80B483B000AF7860AB
:1022800039603B6818460C37BD465DF8047B7047E3
:1022900080B483B000AF7860396000BF0C37BD46B2
:1022A0005DF8047B704700BF80B400AF47F6EC03D5
:1022B000C0F201031B68002B14BF01230023DBB213
:1022C0001846BD465DF8047B704700BF80B582B0FC
:1022D00000AF7860396039687868FFF772ED0346BF
:1022E00018460837BD4680BD80B582B000AF786023
:1022F000FFF7DAFF0346002B14BF01230023DBB2F4
:10230000002B04D07868FFF7E4EC034600E00023DC
:1023100018460837BD4680BD80B582B000AF7860F2
:10232000FFF7C2FF0346002B14BF01230023DBB2DB
:10233000002B04D07868FFF7D6EE034600E00023B8
:1023400018460837BD4680BD80B582B000AF7860C2
:1023500039603A687B68BFF35B8F53E8001F01EB7D
:10236000020043E8000EBEF1000FF6D1BFF35B8F11
:102370000B4618460837BD4680BD00BF80B485B007
:1023800000AF786039607B681B68FB607B681A6807
:102390003B681A447B681A60FB6818461437BD46D0
:1023A0005DF8047B704700BF80B582B000AF7860F5
:1023B0003960FFF779FF0346002B14BF0123002388
:1023C000DBB2002B05D039687868FFF7BDFF034604
:1023D00004E039687868FFF7D1FF034618460837EC
:1023E000BD4680BD80B483B000AF78607B680022BA
:1023F0001A607B6818460C37BD465DF8047B704751
:1024000080B582B000AF786039607B683A68114669
:102410001846FFF75BFF0346002B14BF0123002380
:10242000DBB218460837BD4680BD00BF80B582B01C
:1024300000AF7860786800F00BF80346002B01D0FD
:10244000FFF75EEC7B6818460837BD4680BD00BFCD
:1024500080B584B000AF786007F10C031846FFF731
:10246000C1FF7B68F9681868FFF7CAFF034683F06D
:102470000103DBB218461037BD4680BD80B582B07F
:1024800000AF78607B680433184600F0CFFA7B68B1
:1024900018460837BD4680BD80B582B000AF786071
:1024A0007B681846FFF7EAFF7B6818460837BD4689
:1024B00080BD00BF80B582B000AF7860094A7B68FC
:1024C0001A607B6804331846FFF7E6FF0023002BF1
:1024D00002D07868FFF704ED7B6818460837BD46E0
:1024E00080BD00BF0077010080B582B000AF78608A
:1024F0007868FFF7DFFF7868FFF7F2EC7B68184633
:102500000837BD4680BD00BF80B584B000AF78609D
:102510007B681846FFF7E8FEF860FB68002B02D0E6
:10252000F868FFF766EC00BF1037BD4680BD00BFFE
:1025300080B582B000AF78607B681846FFF7ECFE8C
:1025400000BF0837BD4680BD80B584B000AF78605D
:1025500039603B6803F1500207F10C03114618463D
:1025600000F076FA3B68043319467868FFF7ECEB25
:1025700000BF07F10C03184600F07CFA06E007F1F3
:102580000C03184600F076FAFFF7E0EC7868103795
:10259000BD4680BD80B584B000AF786039603B68CF
:1025A00003F1500207F10C031146184600F050FAEF
:1025B0003B681C3319467868FFF7C6EB00BF07F18C
:1025C0000C03184600F056FA06E007F10C03184613
:1025D00000F050FAFFF7BAEC78681037BD4680BDBE
:1025E00080B584B000AF786039603B6803F1500279
:1025F00007F10C031146184600F02AFA3B68343301
:1026000019467868FFF7A0EB00BF07F10C031846E6
:1026100000F030FA06E007F10C03184600F02AFA41
:10262000FFF794EC78681037BD4680BDF0B58BB0ED
:1026300000AFF860B9607A60FB68B968184602F0CC
:10264000FDFD254AFB681A60FB680022DA60FB6822
:1026500000221A74FB6800225A6147F21C60C0F223
:102660000100FFF7A8EBFB687A685A61FB68DB683A
:10267000002B20D142F29573C0F20103FB610023CD
:102680003B6207F1140307F11C0292E8030083E8A0
:10269000030007F11405FB687B6207F124060420A0
:1026A000FFF704EB03461C4632462946204600F05D
:1026B00023FAFB68DC60FB680AE02046FFF710ECB9
:1026C00000E0FFE7FB68184602F0D4FDFFF73EECA0
:1026D00018462C37BD46F0BDF076010090B583B0AA
:1026E00000AF7860194A7B681A6047F24860C0F210
:1026F0000100FFF760EB7B68DB68002B16D07B687E
:10270000DB681846FFF7A4FE0346002B04D07B6865
:10271000DB681846FFF7B0EC7B68DC68002C05D05E
:102720002046FFF783FE2046FFF7DAEB7B6818466A
:1027300002F0A0FD0023002B02D07868FFF7D0EB59
:102740007B6818460C37BD4690BD00BFF07601008F
:1027500080B582B000AF78607868FFF7BFFF786817
:10276000FFF7BEEB7B6818460837BD4680BD00BF4B
:1027700090B482B000AF786039603B681B684FEA64
:10278000E3747A68C2E900347B6818460837BD46AE
:1027900090BC704780B5ADF5836D00AF3B1D1860F0
:1027A0003B1D1B6801221A741923C7F8103407F562
:1027B000826207F5816311461846FFF7D9FF07F5D6
:1027C0008163184600F03EFB3B1D18683B1D1B68EB
:1027D00018334FF48062194602F01EFE0346C7F814
:1027E0001434D7F81434002B0CDD3B1D1A68D7F8CD
:1027F00014341344183300221A703B1D186800F07B
:102800000BF8CDE73B1D1B6800221A7400BF00BF08
:1028100007F58367BD4680BD90B5A5B000AF786071
:1028200007F13C031846FFF746EC07F13C0207F1BD
:10283000240347F26C61C0F201011846FFF7B0EBC8
:1028400007F13C031846FFF77CEB7B681833194609
:1028500047F27460C0F20100FFF794EA7B6803F16D
:10286000180407F140031846FFF724EC07F1400273
:1028700007F10C0321461846FFF792EB07F14003DE
:102880001846FFF75EEB07F10C0347F28861C0F2D0
:102890000101184600F01AFB0346002B15D07B6897
:1028A0005A6907F1440311461846FFF773FE07F112
:1028B000440207F1240311461846FFF76CEB07F1B9
:1028C00044031846FFF782EA42E007F10C0347F29F
:1028D0009461C0F20101184600F0F8FA0346002B9B
:1028E00015D07B685A6907F15C0311461846FFF75B
:1028F0002BFE07F15C0207F1240311461846FFF78F
:102900004AEB07F15C031846FFF760EA20E007F1A5
:102910000C0347F2A061C0F20101184600F0D6FA9C
:102920000346002B14D07B685A6907F174031146E3
:102930001846FFF755FE07F1740207F1240311460C
:102940001846FFF728EB07F174031846FFF73EEA35
:1029500007F124031846FFF7F2E90346194647F248
:10296000AC60C0F20100FFF70EEA7B6803F11804C7
:1029700007F124031846FFF7E2E90346194620460B
:10298000FFF7A2EA07F124031846FFF728EB0246F7
:102990007B68134400221A767B6818331846FFF7C9
:1029A00030EB0346C7F88C3078687B681833D7F86B
:1029B0008C20194602F016FD07F10C031846FFF7AC
:1029C00006EA07F124031846FFF700EA19E007F1C9
:1029D0003C031846FFF7B4EAFFF7B8EA07F14003F3
:1029E0001846FFF7AEEA05E007F10C031846FFF7BB
:1029F000EEE9FFE707F124031846FFF7E8E9FFF7E0
:102A0000A6EA9437BD4690BD80B582B000AF78602D
:102A10007B68002B05D07B681B6804331B687868D3
:102A2000984700BF0837BD4680BD00BF80B582B063
:102A300000AF78607B681B68002B04D07B681B6844
:102A4000184600F057FA7B6818460837BD4680BD27
:102A500080B582B000AF786039607B683A681A60F0
:102A60007B681B681846FFF74FFD7B6818460837E0
:102A7000BD4680BD80B582B000AF78607B681B68C2
:102A80001846FFF755FD7B6818460837BD4680BDE0
:102A900080B483B000AF78607B6818460C37BD46C1
:102AA0005DF8047B704700BF80B483B000AF7860EE
:102AB0007B6818460C37BD465DF8047B704700BF45
:102AC00080B582B000AF78607B6804331846FFF7AA
:102AD000ADFF7B6818460837BD4680BD80B582B023
:102AE00000AF78607B681846FFF7EAFF7B681846FE
:102AF0000837BD4680BD00BF90B58DB000AFF8600F
:102B0000B9607A60FB681846FFF76CFCB868FFF79D
:102B1000BFFF04467868FFF7C7FF024607F12403AA
:102B20002146184600F0F4FA07F11C0307F12402CD
:102B3000F968184600F016FB07F11C0207F11403B0
:102B40001146184600F02EFB07F1140342F2600212
:102B5000C0F201021946F868FFF7BCE907F1140357
:102B60001846FFF799FC07F11C031846FFF7B6FF5C
:102B7000FB680BE007F114031846FFF78DFC07F123
:102B80001C031846FFF7AAFFFFF7E0E918463437A1
:102B9000BD4690BD90B482B000AF786039603B68AC
:102BA000D3E900347A68C2E900347B6818460837F4
:102BB000BD4690BC704700BF90B585B000AF78604F
:102BC000FFF720FB03460C46C7E9023407F1080370
:102BD00019467868FFF7DEFF78681437BD4690BD68
:102BE00090B482B000AF78607B68D3E900341846B7
:102BF00021460837BD4690BC704700BFF0B587B08E
:102C000000AF786039607B68D3E90034C7E90234EB
:102C100007F108031846FFF7E3FF05460E463B6839
:102C2000D3E90034C7E9043407F110031846FFF76D
:102C3000D7FF03460C469D4276EB0403B4BF012345
:102C40000023DBB218461C37BD46F0BD80B582B00C
:102C500000AF7860396079683868FFF7CFFF0346C6
:102C600083F00103DBB218460837BD4680BD00BFC4
:102C700090B585B000AF786039603868FFF7B0FF75
:102C80004FF47A724FF00003FFF76CE903460C46ED
:102C9000C7E9023407F1080319467868FFF7CCFA50
:102CA00078681437BD4690BD80B582B000AF7860BB
:102CB00039607B6839681846FFF7DAFF78680837AB
:102CC000BD4680BD2DE9F04385B000AF7860396026
:102CD0003868FFF7C3FA0A4601460B4614464FEA26
:102CE000441949EAD3694FEA431843464C465B1AF4
:102CF00064EB0204DB1844EB0404DB1844EB04042B
:102D00005B1844EB0204E60046EA5376DD002B46EE
:102D10003446C7E9023407F1080319467868FFF71B
:102D200039FF78681437BD46BDE8F08380B582B0BE
:102D300000AF786039607B6839681846FFF7C2FFDA
:102D400078680837BD4680BD90B585B000AF786023
:102D5000396007F1080339681846FFF7E7FF07F104
:102D600008031846FFF73CFF03460C467A68C2E9A1
:102D700000347B6818461437BD4690BDF0B58BB063
:102D800000AFF860B9607A60BB68D3E90034C7E986
:102D9000063407F118031846FFF722FF05460E46D2
:102DA00007F1200379681846FFF7CEFF07F12003EB
:102DB0001846FFF715FF03460C46EB1A66EB0404B2
:102DC000C7E9043407F110031946F868FFF7E2FE7B
:102DD000F8682C37BD46F0BD90B585B000AF78607F
:102DE00039603868FFF7FCFE03460C4644F2402287
:102DF000C0F20F0202FB04F1002202FB03F21144B5
:102E000044F24022C0F20F02A3FB02340A19144616
:102E1000C7E9023407F1080319467868FFF7E0F9BB
:102E200078681437BD4690BD80B582B000AF786039
:102E300039607B6839681846FFF7CEFF7868083735
:102E4000BD4680BD90B58DB000AF786007F120031E
:102E50001846FFF7B1FE07F1200319467868FFF71F
:102E6000F5FE0346002B2CD107F1180379681846AC
:102E7000FFF71AFF07F1280307F1180279681846CF
:102E8000FFF77CFF07F1100307F1280211461846EF
:102E9000FFF7CAFF07F118031846FFF7DFF90346EB
:102EA0000C46BB6007F110031846FFF7B7F903465D
:102EB0000C46FB6007F1080300211846FEF79EEF61
:102EC00000E000BF3437BD4690BD00BF80B582B082
:102ED00000AF7860396039687868FEF718EF03460C
:102EE000002B0CBF01230023DBB218460837BD4678
:102EF00080BD00BF80B582B000AF78607B680433CE
:102F00004FF0FF311846FFF74FFA0346012B0CBF75
:102F100001230023DBB2002B1AD07B681B68083327
:102F20001B68786898477B6808334FF0FF31184674
:102F3000FFF73AFA0346012B0CBF01230023DBB253
:102F4000002B05D07B681B680C331B68786898479A
:102F500000BF0837BD4680BD80B483B000AF786045
:102F60007B6818460C37BD465DF8047B704700BF90
:102F700080B582B000AF78607B681846FFF7ECFF41
:102F8000034618460837BD4680BD00BF80B582B0F5
:102F900000AF786039603868FFF786FD03461A682D
:102FA0007B681A607B6818460837BD4680BD00BF45
:102FB00090B583B000AF786039607C683868FFF7FF
:102FC000D7FF03461846FFF76FFD03461946204614
:102FD000FFF7DCFF7B6818460C37BD4690BD00BF8D
:102FE00080B483B000AF78607B6818460C37BD466C
:102FF0005DF8047B704700BF80B483B000AF786099
:103000007B6818460C37BD465DF8047B704700BFEF
:1030100080B483B000AF78607B6818460C37BD463B
:103020005DF8047B704700BF80B582B000AF786068
:103030007B6804331846FFF7EBFF03461846083752
:10304000BD4680BD80B483B000AF78607B68184611
:103050000C37BD465DF8047B704700BF80B582B079
:1030600000AF786039603868FFF7ECFF02467B6894
:1030700092E8030083E803007B6818460837BD46E2
:1030800080BD00BF90B583B000AF786039607C68C8
:103090003868FFF7A5FF03461846FFF7ADFF034664
:1030A00019462046FFF784FF7B681C1D3868FFF730
:1030B000BBFF03461846FFF7C5FF034619462046E7
:1030C000FFF7CCFF7B6818460C37BD4690BD00BFAC
:1030D00080B582B000AF786039607B683A6811468D
:1030E0001846FFF7CFFF7B6818460837BD4680BDFE
:1030F00080B582B000AF786039607B683A6811466D
:103100001846FFF7E5FF7B6818460837BD4680BDC7
:1031100080B586B000AFF860B9607A60B868FFF734
:10312000B7FC024607F1100306CA184600F072F811
:103130007868FFF7B9FC024607F110031946F868F2
:1031400000F0C6F8F8681837BD4680BD80B483B07B
:1031500000AF78607B6818460C37BD465DF8047B8D
:10316000704700BF80B584B000AFF860B9607A6086
:103170007868FFF7EBFF0246FB681146184600F03F
:10318000C1F8F8681037BD4680BD00BF80B483B079
:1031900000AF78607B6818460C37BD465DF8047B4D
:1031A000704700BF90B583B000AF786039607C682D
:1031B0003868FFF7EBFF03461946204600F0D6F8C3
:1031C0007B6818460C37BD4690BD00BF80B582B005
:1031D00000AF78607B68002B05D07B681B680433E8
:1031E0001B687868984700BF0837BD4680BD00BFA0
:1031F00080B584B000AFF8603B1D83E80600F86836
:103200003B1D93E8060000F00BF9FB6818461037E9
:10321000BD4680BD80B584B000AFF8603B1D83E83B
:1032200006003B1D93E80600F868FFF7E1FFF86829
:103230001037BD4680BD00BF90B583B000AF786049
:1032400039607C683868FFF72FFC03461946204632
:10325000FFF79CFE7B6818460C37BD4690BD00BF4B
:1032600090B585B000AFF860B9607A60FC687868A6
:10327000FFF71AFC034619462046FFF7DDFFFB68FF
:103280001C1DB868FFF7DEFE034619462046FFF70F
:10329000E5FEFB6818461437BD4690BDB0B584B056
:1032A00000AFF860B9607A60FC68B868FFF7CAFEE2
:1032B00005467868FFF7F8FB03461A46294620467C
:1032C000FFF7CEFFFB6818461037BD46B0BD00BF04
:1032D000B0B584B000AFF860B9607A60FC68B868D7
:1032E000FFF7B0FE05467868FFF7DEFB03461A4697
:1032F00029462046FFF7D2FFFB6818461037BD4627
:10330000B0BD00BF80B584B000AF7860396007F110
:103310000C03184600F09AF83868FFF717FF0246CA
:103320007B6807F10C01184600F0A8F807F10C03C0
:10333000184600F097F806E007F10C03184600F075
:1033400091F8FEF704EE78681037BD4680BD00BFE7
:1033500080B483B000AF78607B6800221A607B681D
:1033600018460C37BD465DF8047B704780B582B0C7
:1033700000AF786039603B681A687B681A607B68C8
:1033800004331846FFF7E4FF7B681A1D3B680433DB
:103390001946104600F086F83B6800221A607B68E8
:1033A00018460837BD4680BD80B582B000AF786052
:1033B000064A7B681A600023002B02D07868FEF76B
:1033C00090ED7B6818460837BD4680BD1477010034
:1033D00080B582B000AF78607868FFF7E5FF786865
:1033E000FEF77EED7B6818460837BD4680BD00BFFE
:1033F00080B483B000AF78607B6818460C37BD4658
:103400005DF8047B704700BF80B582B000AF786084
:103410007868FFF7EDFF7B6818460837BD4680BD2A
:1034200080B584B000AFF8603B1D83E80600F86803
:10343000FFF7EAFFFB681A463B1D93E8030082E8AA
:103440000300FB6818461037BD4680BD80B582B0CA
:1034500000AF7860786800F03BF87B681846083762
:10346000BD4680BD80B582B000AF7860786800F05E
:103470003BF87B6818460837BD4680BD90B587B0DD
:1034800000AFF860B9607A607868FFF75FFE0346C6
:10349000BA682146F86800F033F8F8681C37BD4672
:1034A00090BD00BF80B485B000AF786039603B68E4
:1034B0001B68FB607B681A683B681A607B68FA6867
:1034C0001A6000BF1437BD465DF8047B704700BF2B
:1034D00080B483B000AF78607B6818460C37BD4677
:1034E0005DF8047B704700BF80B483B000AF7860A4
:1034F0007B6818460C37BD465DF8047B704700BFFB
:10350000B0B584B000AFF86039727A603B60FC6897
:103510003868FFF71BFE03467A682946204600F00C
:1035200005F8FB6818461037BD46B0BDB0B588B089
:1035300002AFF86039727A603B60FB6800221A6063
:10354000FB681C1D3868FFF701FE034600937B688B
:1035500000222946204600F027F8FB68043347F292
:10356000C071C0F20101184600F092F87861FB6862
:103570007A691A60FB68181DFB681968FB681B688C
:103580001A4600F09FF8FB6818461837BD46B0BDD4
:1035900080B483B000AF78607B6818460C37BD46B6
:1035A0005DF8047B704700BF2DE9F0418AB000AFA1
:1035B000F86039727A603B60FB6800221A6007F19C
:1035C0001C033968184600F087F807F1140307F167
:1035D0001C021146184600F099F807F1140318462A
:1035E00000F0BEF803467B623868FFF7D1FF024661
:1035F00007F120031146184600F0C2F807F1200633
:10360000386CFFF7A3FD80467D6A29462420FEF72B
:1036100033FE0446002C04D042463146204600F0DA
:10362000D5F807F120031846FFF71CFFFB687A6AFC
:103630001A6007F114030021184600F009F907F198
:103640001403184600F076F807F11C03184600F042
:1036500051F8FB6816E029462046FEF719FE07F1EF
:1036600020031846FFF7FEFEFFE707F11403184694
:1036700000F060F8FFE707F11C03184600F03AF885
:10368000FEF764EC18462837BD46BDE8F08100BF60
:1036900080B582B000AF786039607B681B68002B12
:1036A0000BD07B681B681B6810331B687A68126834
:1036B000396810469847034600E00023184608374B
:1036C000BD4680BD0FB480B400AF00BFBD465DF8FD
:1036D000047B04B0704700BF80B582B000AF786053
:1036E0003960786800F0C4F87B6818460837BD4632
:1036F00080BD00BF80B582B000AF7860786800F010
:10370000C3F87B6818460837BD4680BD80B582B0D7
:1037100000AF786039600121386800F0C1F80346D5
:103720001A463968786800F0CBF878680837BD46E3
:1037300080BD00BF80B582B000AF78607B685B68F9
:10374000002B07D07B6818687B685B6801221946EC
:1037500000F0CAF87B6818460837BD4680BD00BF38
:1037600080B582B000AF78607B685B681946786886
:1037700000F0CAF8034618460837BD4680BD00BFB2
:1037800080B582B000AF786039603968786800F041
:10379000C7F87B6818460837BD4680BD80B582B043
:1037A00000AF78607868FFF75DFE7B6818460837E1
:1037B000BD4680BD80B582B000AF78607868FFF705
:1037C000EDFF7B6818460837BD4680BD90B587B0D1
:1037D00000AFF860B9607A60FB68184600F0B8F88E
:1037E0001A4AFB681A60FB6803F10C0407F1140322
:1037F000B9681846FFF7C4FF07F1140319462046BD
:1038000000F0D6F807F114031846FFF72BFEF8680E
:1038100000F0E0F804467868FFF798FC03461A4683
:103820002146B86800F0E4F8FB680AE0FB680C3356
:103830001846FFF7BFFFFB681846FFF7B5FDFEF718
:1038400086EB18461C37BD4690BD00BFC076010010
:1038500080B483B000AF786039607B6800225A6022
:103860007B6818460C37BD465DF8047B704700BF87
:1038700080B483B000AF78607B6818460C37BD46D3
:103880005DF8047B704700BF80B483B000AF786000
:103890007B6818460C37BD465DF8047B704700BF57
:1038A00080B582B000AF78603960002239687868EE
:1038B00000F0B2F8034618460837BD4680BD00BF89
:1038C00080B485B000AFF860B9607A60FB68BA6810
:1038D0001A60FB687A685A60FB6818461437BD4660
:1038E0005DF8047B704700BF80B584B000AFF8601E
:1038F000B9607A607A68B968F86800F0ADF800BF1E
:103900001037BD4680BD00BF80B483B000AF786083
:1039100039603B6818460C37BD465DF8047B70473C
:1039200080B483B000AF786039607B6818460C378C
:10393000BD465DF8047B704780B483B000AF78600B
:103940007B6818460C37BD465DF8047B704700BFA6
:1039500080B582B000AF78607868FFF7EDFF074A66
:103960007B681A607B6801225A607B6801229A603A
:103970007B6818460837BD4680BD00BF147701003C
:1039800080B483B000AF78607B6818460C37BD46C2
:103990005DF8047B704700BF80B582B000AF7860EF
:1039A0007868FFF7EDFF7B6818460837BD4680BD95
:1039B00080B582B000AF786039603968786800F00F
:1039C00059F87B681846FFF7E7FF7B681846083709
:1039D000BD4680BD80B582B000AF78607B680C3397
:1039E000184600F055F8034618460837BD4680BD16
:1039F00080B584B000AFF860B9607A607868FFF78E
:103A0000A5FB03461A46B968F86800F04DF800BFF8
:103A10001037BD4680BD00BF80B584B000AFF860F0
:103A2000B9607A60F86800F059F80246BB689A42BB
:103A300034BF01230023DBB2002B01D0FEF76CE979
:103A4000BB68242202FB03F31846FEF730E9034665
:103A500018461037BD4680BD80B584B000AFF86011
:103A6000B9607A60B868FEF73CEA00BF1037BD461F
:103A700080BD00BF80B582B000AF78603960396822
:103A80007868FFF77DFE7B6818460837BD4680BD25
:103A900080B582B000AF7860786800F02DF80346FA
:103AA00018460837BD4680BD90B585B000AFF860B8
:103AB000B9607A607868FFF749FB0446BB6819462D
:103AC0001820FEF7D9FB0346002B03D021461846E9
:103AD00000F052F800BF1437BD4690BD80B483B0EB
:103AE00000AF786047F2C713C0F21C7318460C375A
:103AF000BD465DF8047B704780B483B000AF78604A
:103B00007B6818460C37BD465DF8047B704700BFE4
:103B100080B582B000AF78607B6800221A607B6855
:103B200004331846FFF714FC7B6818460837BD4677
:103B300080BD00BF80B582B000AF78607B6818465A
:103B4000FFF7E6FF7B6818460837BD4680BD00BF1B
:103B500080B582B000AF7860064A7B681A607B68E7
:103B600004331846FFF7E6FF7B6818460837BD4662
:103B700080BD00BF0077010090B583B000AF7860D2
:103B800039607B681846FFF7E3FF094A7B681A60D3
:103B90007B6803F10C043868FFF7D8FA034619462E
:103BA0002046FFF7A5FA7B6818460C37BD4690BD46
:103BB000DC76010080B582B000AF7860084A7B688F
:103BC0001A607B681846FEF775FC0023002B02D0B4
:103BD0007868FEF786E97B6818460837BD4680BDE1
:103BE000DC76010080B582B000AF78607868FFF7BE
:103BF000E1FF7868FEF774E97B6818460837BD4630
:103C000080BD00BF80B582B000AF78600B4A7B6892
:103C10001A607B680C331846FFF7CCFD7B681846AA
:103C2000FFF7C2FB0023002B02D07868FEF758E9AB
:103C30007B6818460837BD4680BD00BFC0760100CE
:103C400080B582B000AF78607868FFF7DBFF7868F6
:103C5000FEF746E97B6818460837BD4680BD00BFC1
:103C600090B583B000AF78607B680C33184600F0E5
:103C70005FF804467868FFF7ADFE03461946204614
:103C800000F062F800BF0C37BD4690BD80B586B02D
:103C900000AF78607B680C33184600F049F80246A4
:103CA00007F1140311461846FFF716FD07F114013A
:103CB00007F10C037A681846FFF702FE7868FFF7F1
:103CC000A1FF07F10C031846FFF734FD07F11403B9
:103CD0001846FFF70FFD00BF1837BD4680BD00BF77
:103CE00080B582B000AF7860396047F2C071C0F231
:103CF00001013868FEF712E90346002B04D078680A
:103D0000FFF768FE034600E0002318460837BD466B
:103D100080BD00BF80B582B000AF78607B680C3397
:103D2000184600F01FF800BF0837BD4680BD00BF31
:103D300080B582B000AF7860786800F01FF8034665
:103D400018460837BD4680BD80B582B000AF7860A8
:103D500039603968786800F01DF800BF0837BD4643
:103D600080BD00BF80B584B000AF78601946786828
:103D700000F052F81037BD4680BD00BF80B483B05C
:103D800000AF78607B6818460C37BD465DF8047B51
:103D9000704700BF80B582B000AF786039603B6883
:103DA0001B681B683868984700BF0837BD4680BD50
:103DB00080B582B000AF78607868FFF735F90346C8
:103DC00018460837BD4680BD80B582B000AF786028
:103DD0007B681846FFF7ECFF034618460837BD46D8
:103DE00080BD00BF80B582B000AF78607868FFF713
:103DF000BFF8034618460837BD4680BD80B582B07F
:103E000000AF78607B681846FFF7ECFF0346184662
:103E10000837BD4680BD00BF90B583B000AF786065
:103E200039707B681846FFF7CFFF03461846FFF747
:103E300009F903461C467B681846FFF7DFFF034677
:103E40001846FEF731FE03461B681946204600F06F
:103E500003F80C37BD4690BD80B582B000AF7860E6
:103E600039607B685B6803F00103002B02D17B683B
:103E70001B680AE07B685B685B101A463B6813446A
:103E80001B687A68126813441B687A68526852107B
:103E900011463A680A44104698470837BD4680BD27
:103EA00080B582B000AF786039607868FEF7D0FAEC
:103EB0000346002B01D0FDF724EF3968786800F045
:103EC00005F87B6818460837BD4680BD80B582B0CE
:103ED00000AF786039607B683A681146184600F098
:103EE0002DFA00BF0837BD4680BD00BF80B582B047
:103EF00000AF78607B681846FEF774FA7B68184656
:103F00000837BD4680BD00BF80B582B000AF786085
:103F100039607B68184601F075F9284A7B681A6099
:103F20007B680C334FF4806200211846FDF76CEF7C
:103F30007B684FF0FF32DA607B680022C3F80C2404
:103F40007B680022C3F810247B680022C3F8142485
:103F50007B680022C3F818247B6803F21C431846D0
:103F6000FFF7C4FF7B6803F584631846FFF7BEFFC5
:103F70007B683A68C3F8182447F6F000C0F20100E5
:103F8000FDF718EF786800F073F87B6811E07B6844
:103F900003F584631846FEF749FA7B6803F21C4375
:103FA0001846FEF743FA7B68184601F063F9FDF7FF
:103FB000CEEF18460837BD4680BD00BFC879010066
:103FC00080B582B000AF7860204A7B681A6047F6FF
:103FD0000810C0F20100FDF7EEEE7B6803F21C430F
:103FE0001846FEF735FA0346002B05D07B6803F22E
:103FF0001C431846FEF740E87B6803F584631846C7
:10400000FEF726FA0346002B05D07B6803F5846390
:104010001846FEF732E87B6803F584631846FEF71E
:1040200005FA7B6803F21C431846FEF7FFF97B682C
:10403000184601F01FF90023002B02D07868FDF725
:1040400050EF7B6818460837BD4680BDC87901002F
:1040500080B582B000AF78607868FFF7B1FF78680C
:10406000FDF73EEF7B6818460837BD4680BD00BFB0
:1040700090B58FB000AF78607B6842F20F71184640
:1040800001F030F9034683F00103DBB2002B5AD173
:104090007B68184601F078F9034683F00103DBB230
:1040A000002B52D17B6803F21C4444F25513C0F23A
:1040B00001037B610023BB6107F10C0307F11402CC
:1040C00092E8030083E803007B68FB6107F11C02B0
:1040D00007F10C0107F10803184600F083F907F116
:1040E000080319462046FFF7DBFE07F108031846D0
:1040F000FEF79CF97B6803F5846444F26523C0F203
:104100000103FB6200233B6307F1240307F12C0248
:1041100092E8030083E803007B687B6307F13402C5
:1041200007F1240107F12003184600F05BF907F1BD
:10413000200319462046FFF7B3FE07F12003184677
:10414000FEF774F902E000BF00E000BF3C37BD4657
:1041500090BD00BF90B58DB000AF78607B685B68A4
:10416000B3F1FF3F7AD07B68D3F81434FE2BFADC2E
:104170001023FB627B68D3F81044621C7B68C3F891
:1041800010247B685B6807F12C0207F11C011846BC
:10419000FDF742EF01467A68A31C9B001344596067
:1041A0007B68D3F814345A1C7B68C3F814247B68EA
:1041B000D3F81434194647F62010C0F20100FDF779
:1041C000E2ED7B68D3F81034DAB27B68C3F81024D0
:1041D0007B68D3F80C347A6802339B0013445B6825
:1041E00007F12C0207F10C011846FDF7DEED03463E
:1041F000DB0FDBB2002B14D047F63810C0F2010001
:10420000FDF7D8EDFDF744EF03461B681846FDF7B0
:10421000C0ED0346194647F64C10C0F20100FDF709
:10422000B2ED3869FDF74AEE0346194647F66010CD
:10423000C0F20100FDF7A6ED3869FDF740EE044637
:10424000FB891846FDF79AEE03461A46214647F6C3
:104250007C10C0F20100FDF796ED84E700BF343713
:10426000BD4690BD90B589B000AF78604FF0FF3388
:10427000FB617B68D3F81434002B3DDD7B68D3F8F9
:1042800014345A1E7B68C3F814247B68D3F80C34AA
:104290007A6802339B0013445B68FB617B68D3F848
:1042A0000C34591C7A68C2F80C147A6802339B00EB
:1042B00013444FF0FF325A607B68D3F80C34DAB203
:1042C0007B68C3F80C24FB69B3F1FF3FD1D040F207
:1042D0001C40FDF7ECEC03461C467B68D3F8183411
:1042E0001A46F9692046FEF7A1F9BC61B869FEF7E4
:1042F0008BFB0023BB61BCE764237B6107F11402E5
:1043000007F1080311461846FEF732FA07F10803D1
:104310001846FEF797FDACE72046FDF7E2EDFDF706
:1043200016EE00BF80B483B000AF78607B6818469B
:104330000C37BD465DF8047B704700BF80B584B084
:1043400000AF786039607868FFF7ECFF03461B68C0
:10435000FB603868FFF7E6FF02467B6812681A6068
:1043600007F10C031846FFF7DDFF02463B681268B1
:104370001A6000BF1037BD4680BD00BF80B483B057
:1043800000AF78607B6818460C37BD465DF8047B4B
:10439000704700BF80B483B000AF78607B68184678
:1043A0000C37BD465DF8047B704700BF80B582B016
:1043B00000AF78607B6804331846FEF737FB7B68F4
:1043C00018460837BD4680BD80B582B000AF786022
:1043D0007B681846FFF7EAFF7B6818460837BD463A
:1043E00080BD00BF90B58DB000AFF860B9607A6055
:1043F000FB681846FDF7F6FFB868FFF7BFFF0446F5
:104400007868FFF7C7FF024607F1240321461846E4
:1044100000F012F907F11C0307F12402F9681846AD
:1044200000F034F907F11C0207F114031146184695
:1044300000F04CF907F1140342F26002C0F20102ED
:104440001946F868FDF746ED07F114031846FEF724
:1044500023F807F11C031846FFF7B6FFFB680BE0D3
:1044600007F114031846FEF717F807F11C03184666
:10447000FFF7AAFFFDF76AED18463437BD4690BD39
:1044800080B483B000AF78607B6818460C37BD46B7
:104490005DF8047B704700BF80B582B000AF7860E4
:1044A0007B681846FFF7ECFF034618460837BD4601
:1044B00080BD00BF80B582B000AF786039603868D9
:1044C000FFF768FF03461A687B681A607B68184626
:1044D0000837BD4680BD00BF90B583B000AF78609F
:1044E00039607C683868FFF7D7FF03461846FFF746
:1044F00051FF034619462046FFF7DCFF7B6818464C
:104500000C37BD4690BD00BF80B483B000AF78606B
:104510007B6818460C37BD465DF8047B704700BFCA
:1045200080B483B000AF78607B6818460C37BD4616
:104530005DF8047B704700BF80B483B000AF786043
:104540007B6818460C37BD465DF8047B704700BF9A
:1045500080B582B000AF78607B6804331846FFF7FF
:10456000EBFF034618460837BD4680BD80B483B0D4
:1045700000AF78607B6818460C37BD465DF8047B59
:10458000704700BF80B582B000AF7860396038688E
:10459000FFF7ECFF02467B6892E8030083E8030024
:1045A0007B6818460837BD4680BD00BF90B583B014
:1045B00000AF786039607C683868FFF7A5FF034674
:1045C0001846FFF7ADFF034619462046FFF784FF64
:1045D0007B681C1D3868FFF7BBFF03461846FFF7D2
:1045E000C5FF034619462046FFF7CCFF7B681846F7
:1045F0000C37BD4690BD00BF80B582B000AF78607B
:1046000039607B683A6811461846FFF7CFFF7B6830
:1046100018460837BD4680BD80B582B000AF7860CF
:1046200039607B683A6811461846FFF7E5FF7B68FA
:1046300018460837BD4680BD80B586B000AFF8602B
:10464000B9607A60B868FFF799FE024607F1100377
:1046500006CA184600F060F87868FFF79BFE02462D
:1046600007F110031946F86800F0B4F8F868183735
:10467000BD4680BD80B483B000AF78607B681846CB
:104680000C37BD465DF8047B704700BF80B584B031
:1046900000AFF860B9607A607868FFF7EBFF024618
:1046A000FB681146184600F0AFF8F8681037BD46B1
:1046B00080BD00BF80B483B000AF78607B681846CF
:1046C0000C37BD465DF8047B704700BF90B583B0E2
:1046D00000AF786039607C683868FFF7EBFF03460D
:1046E0001946204600F0B6F87B6818460C37BD46E0
:1046F00090BD00BF80B584B000AFF8603B1D83E87B
:104700000600F8683B1D93E8060000F0D9F8FB6846
:1047100018461037BD4680BD80B584B000AFF86044
:104720003B1D83E806003B1D93E80600F868FFF791
:10473000E1FFF8681037BD4680BD00BF90B583B07B
:1047400000AF786039607C683868FFF723FE034665
:1047500019462046FFF7AEFE7B6818460C37BD466B
:1047600090BD00BF90B585B000AFF860B9607A60C9
:10477000FC687868FFF70EFE034619462046FFF7EF
:10478000DDFFFB681C1DB868FFF7F0FE0346194605
:104790002046FFF7F7FEFB6818461437BD4690BD6C
:1047A000B0B584B000AFF860B9607A60FC68B868F2
:1047B000FFF7DCFE05467868FFF7ECFD03461A4676
:1047C00029462046FFF7CEFFFB6818461037BD4646
:1047D000B0BD00BFB0B584B000AFF860B9607A601A
:1047E000FC68B868FFF7C2FE05467868FFF7D2FD9F
:1047F00003461A4629462046FFF7D2FFFB681846B3
:104800001037BD46B0BD00BF80B584B000AF786042
:10481000396007F10C03184600F068F83868FFF7B4
:1048200029FF02467B6807F10C01184600F076F874
:1048300007F10C03184600F065F806E007F10C03D9
:10484000184600F05FF8FDF782EB78681037BD4638
:1048500080BD00BF80B582B000AF786039603B6832
:104860001A687B681A607B6804331846FEF770FD8F
:104870007B681A1D3B68043319461046FEF712FE8A
:104880003B6800221A607B6818460837BD4680BD29
:1048900080B483B000AF78607B6818460C37BD46A3
:1048A0005DF8047B704700BF80B582B000AF7860D0
:1048B0007868FFF7EDFF7B6818460837BD4680BD76
:1048C00080B584B000AFF8603B1D83E80600F8684F
:1048D000FFF7EAFFFB681A463B1D93E8030082E8F6
:1048E0000300FB6818461037BD4680BD80B582B016
:1048F00000AF7860786800F025F87B6818460837C4
:10490000BD4680BD80B582B000AF7860786800F0A9
:1049100025F87B6818460837BD4680BD90B587B03E
:1049200000AFF860B9607A607868FFF7A3FE0346CD
:10493000BA682146F86800F01DF8F8681C37BD46D3
:1049400090BD00BF80B483B000AF78607B6818462C
:104950000C37BD465DF8047B704700BF80B483B060
:1049600000AF78607B6818460C37BD465DF8047B65
:10497000704700BFB0B584B000AFF86039727A609C
:104980003B60FC683868FFF775FE03467A68294685
:10499000204600F005F8FB6818461037BD46B0BD4C
:1049A000B0B588B002AFF86039727A603B60FB68DE
:1049B00000221A60FB681C1D3868FFF75BFE034687
:1049C00000937B6800222946204600F027F8FB6808
:1049D000043347F2C071C0F201011846FEF758FED9
:1049E0007861FB687A691A60FB68181DFB681968B2
:1049F000FB681B681A46FEF765FEFB681846183709
:104A0000BD46B0BD80B483B000AF78607B68184607
:104A10000C37BD465DF8047B704700BF2DE9F041BF
:104A20008AB000AFF86039727A603B60FB680022A0
:104A30001A6007F11C033968184600F063F807F1A3
:104A4000140307F11C021146184600F075F807F12F
:104A50001403184600F09AF803467B623868FFF7A3
:104A6000D1FF024607F120031146184600F09EF8D8
:104A700007F12006386CFFF7FDFD80467D6A294668
:104A80002420FDF7F9FB0446002C04D042463146B1
:104A9000204600F0B1F807F120031846FFF732FF77
:104AA000FB687A6A1A6007F114030021184600F0C7
:104AB000E5F807F11403184600F052F807F11C035B
:104AC000184600F02DF8FB6816E029462046FDF751
:104AD000DFFB07F120031846FFF714FFFFE707F19C
:104AE0001403184600F03CF8FFE707F11C031846D2
:104AF00000F016F8FDF72AEA18462837BD46BDE84B
:104B0000F08100BF80B582B000AF7860396078680E
:104B100000F0C4F87B6818460837BD4680BD00BF6A
:104B200080B582B000AF7860786800F0C3F87B6829
:104B300018460837BD4680BD80B582B000AF7860AA
:104B400039600121386800F0C1F803461A46396817
:104B5000786800F0CBF878680837BD4680BD00BFA4
:104B600080B582B000AF78607B685B68002B07D0AF
:104B70007B6818687B685B680122194600F0CAF8F8
:104B80007B6818460837BD4680BD00BF80B582B03F
:104B900000AF78607B685B681946786800F0CAF8F7
:104BA000034618460837BD4680BD00BF80B582B0B9
:104BB00000AF786039603968786800F0C7F87B68C2
:104BC00018460837BD4680BD80B582B000AF78601A
:104BD0007868FFF797FE7B6818460837BD4680BDAA
:104BE00080B582B000AF78607868FFF7EDFF7B6832
:104BF00018460837BD4680BD90B587B000AFF86055
:104C0000B9607A60FB681846FEF7A2FE1A4AFB6894
:104C10001A60FB6803F10C0407F11403B968184625
:104C2000FFF7C4FF07F114031946204600F0A6F869
:104C300007F114031846FFF765FEF86800F0B0F8B6
:104C400004467868FFF716FD03461A462146B86801
:104C500000F0B4F8FB680AE0FB680C331846FFF775
:104C6000BFFFFB681846FEF79FFBFDF770E918468B
:104C70001C37BD4690BD00BF9879010080B483B059
:104C800000AF786039607B6800225A607B68184604
:104C90000C37BD465DF8047B704700BF80B483B01D
:104CA00000AF78607B6818460C37BD465DF8047B22
:104CB000704700BF80B483B000AF78607B6818464F
:104CC0000C37BD465DF8047B704700BF80B582B0ED
:104CD00000AF7860396000223968786800F082F8A7
:104CE000034618460837BD4680BD00BF80B485B076
:104CF00000AFF860B9607A60FB68BA681A60FB6858
:104D00007A685A60FB6818461437BD465DF8047B24
:104D1000704700BF80B584B000AFF860B9607A60BA
:104D20007A68B968F86800F07DF800BF1037BD46B2
:104D300080BD00BF80B483B000AF786039603B684D
:104D400018460C37BD465DF8047B704780B483B0CD
:104D500000AF786039607B6818460C37BD465DF857
:104D6000047B704780B582B000AF78607868FEF74A
:104D700007FE7B6818460837BD4680BD80B582B007
:104D800000AF786039603968786800F059F87B685E
:104D90001846FFF7E7FF7B6818460837BD4680BD19
:104DA00080B582B000AF78607B680C33184600F0A5
:104DB00055F8034618460837BD4680BD80B584B017
:104DC00000AFF860B9607A607868FFF753FC03467B
:104DD0001A46B968F86800F04DF800BF1037BD46B4
:104DE00080BD00BF80B584B000AFF860B9607A6064
:104DF000F86800F059F80246BB689A4234BF0123B4
:104E00000023DBB2002B01D0FCF786EFBB68242225
:104E100002FB03F31846FCF74AEF03461846103727
:104E2000BD4680BD80B584B000AFF860B9607A60DF
:104E3000B868FDF756E800BF1037BD4680BD00BF1B
:104E400080B582B000AF7860396039687868FFF764
:104E5000ADFE7B6818460837BD4680BD80B582B080
:104E600000AF7860786800F02DF8034618460837E0
:104E7000BD4680BD90B585B000AFF860B9607A607E
:104E80007868FFF7F7FB0446BB6819461820FDF762
:104E9000F3F90346002B03D02146184600F01EF814
:104EA00000BF1437BD4690BD80B483B000AF7860BA
:104EB00047F2C713C0F21C7318460C37BD465DF8A5
:104EC000047B704780B483B000AF78607B6818467D
:104ED0000C37BD465DF8047B704700BF90B583B0CA
:104EE00000AF786039607B681846FEF731FE094AEA
:104EF0007B681A607B6803F10C043868FFF7BAFB23
:104F0000034619462046FFF787FB7B6818460C3797
:104F1000BD4690BDB479010080B582B000AF786025
:104F2000084A7B681A607B681846FDF7C3FA0023BD
:104F3000002B02D07868FCF7D4EF7B68184608375E
:104F4000BD4680BDB479010080B582B000AF786005
:104F50007868FFF7E1FF7868FCF7C2EF7B681846D6
:104F60000837BD4680BD00BF80B582B000AF786015
:104F70000B4A7B681A607B680C331846FFF730FEDB
:104F80007B681846FEF710FA0023002B02D07868E1
:104F9000FCF7A6EF7B6818460837BD4680BD00BF0A
:104FA0009879010080B582B000AF78607868FFF72B
:104FB000DBFF7868FCF794EF7B6818460837BD463E
:104FC00080BD00BF90B583B000AF78607B680C33C4
:104FD000184600F05FF804467868FFF7E1FE0346E4
:104FE0001946204600F062F800BF0C37BD4690BD60
:104FF00080B586B000AF78607B680C33184600F04F
:1050000049F8024607F1140311461846FFF77AFDE6
:1050100007F1140107F10C037A681846FFF766FEE2
:105020007868FFF7A1FF07F10C031846FFF798FD1A
:1050300007F114031846FFF773FD00BF1837BD468C
:1050400080BD00BF80B582B000AF7860396047F2A4
:10505000C071C0F201013868FCF760EF0346002B15
:1050600004D07868FFF79CFE034600E00023184652
:105070000837BD4680BD00BF80B582B000AF786004
:105080007B680C33184600F01FF800BF0837BD4698
:1050900080BD00BF80B582B000AF7860786800F056
:1050A0001FF8034618460837BD4680BD80B582B05C
:1050B00000AF786039603968786800F01DF800BF8B
:1050C0000837BD4680BD00BF80B584B000AF7860B2
:1050D0001946786800F052F81037BD4680BD00BF11
:1050E00080B483B000AF78607B6818460C37BD464B
:1050F0005DF8047B704700BF80B582B000AF786078
:1051000039603B681B681B683868984700BF0837E0
:10511000BD4680BD80B582B000AF78607868FFF78B
:1051200017FA034618460837BD4680BD80B582B0E1
:1051300000AF78607B681846FFF7ECFF034618461F
:105140000837BD4680BD00BF80B582B000AF786033
:105150007868FFF7A1F9034618460837BD4680BDB9
:1051600080B582B000AF78607B681846FFF7ECFF2F
:10517000034618460837BD4680BD00BF90B583B0D2
:1051800000AF786039707B681846FFF7CFFF0346A1
:105190001846FFF7EBF903461C467B681846FFF7F5
:1051A000DFFF03461846FFF7F5F803461B6819466C
:1051B000204600F003F80C37BD4690BD80B582B0A4
:1051C00000AF786039607B685B6803F00103002BF7
:1051D00002D17B681B680AE07B685B685B101A463B
:1051E0003B6813441B687A68126813441B687A682A
:1051F0005268521011463A680A44104698470837D8
:10520000BD4680BD80B582B000AF78600A4A7B6839
:105210001A6047F6DC20C0F20100FCF7CCED7B6899
:105220004FF0FF325A607B6800229A607B68184614
:105230000837BD4680BD00BFE07B010080B582B06D
:1052400000AF786039600A4A7B681A6047F6FC2034
:10525000C0F20100FCF7AEED7B683A685A607B68EB
:1052600000229A607B6818460837BD4680BD00BFA3
:10527000E07B010080B582B000AF7860104A7B68A7
:105280001A6047F61C30C0F20100FCF794ED7B6811
:105290005B68B3F1FF3F08D07B685B681846FCF79A
:1052A000D8ED7B684FF0FF325A600023002B02D00C
:1052B0007868FCF716EE7B6818460837BD4680BD57
:1052C000E07B010080B582B000AF78607868FFF7BE
:1052D000D1FF7868FCF704EE7B6818460837BD46B6
:1052E00080BD00BF80B588B000AF786039607B6852
:1052F0003A689A60002201210220FCF72EEE024655
:105300007B685A607B685B68B3F1FF3F07D147F663
:105310003830C0F20100FCF74EED00232FE007F11A
:105320000C03102200211846FCF76EED0223BB810E
:105330007B689B689BB21846FCF756EE0346FB81E0
:105340007B685B6807F10C0110221846FCF7ECED56
:10535000F861FB69B3F1FF3F10D147F66030C0F24E
:105360000100FCF728ED7B685B681846FCF770EDE0
:105370007B684FF0FF325A60002300E0012318469B
:105380002037BD4680BD00BF80B584B000AF7860D7
:105390007B685B68B3F1FF3F01D100231DE07B68B0
:1053A0009B68194647F68030C0F20100FCF7EAEC32
:1053B0007B685B684FF480711846FCF73EEDF8603F
:1053C000FB68B3F1FF3F07D147F6A030C0F2010000
:1053D000FCF7F0EC002300E0012318461037BD462F
:1053E00080BD00BF80B586B000AFF860B9607A605C
:1053F000FB6858687A680023B968FCF750EE0346EA
:105400007B617B69B3F1FF3F01D1002300E0012301
:1054100018461837BD4680BD80B586B000AFF8602D
:10542000B9607A60FB6858687A680023B968FCF74D
:10543000F2EC03467B617B69B3F1FF3F01D10023AE
:1054400000E07B6918461837BD4680BD90B585B031
:1054500000AF786039603868FCF700FF03460C46FF
:105460004FF44A42C3F69A3202FB04F1002202FBD7
:1054700003F211444FF44A42C3F69A32A3FB0234BA
:105480000A191446C7E9023407F108031946786877
:10549000FCF7A6FE78681437BD4690BD80B582B093
:1054A00000AF786039607B6839681846FFF7CEFF37
:1054B00078680837BD4680BD80B584B000AF78609D
:1054C00039607B6803F1500207F10C03114618465E
:1054D000FDF7BEFA7B68043339681846FCF7E0EB49
:1054E00007F10C031846FDF7C5FA06E007F10C03B7
:1054F0001846FDF7BFFAFCF72AED1037BD4680BD10
:1055000080B584B000AF786039607B6803F15002E9
:1055100007F10C0311461846FDF79AFA7B681C3315
:1055200039681846FCF7BCEB07F10C031846FDF789
:10553000A1FA06E007F10C031846FDF79BFAFCF709
:1055400006ED1037BD4680BD80B584B000AF7860F1
:1055500039607B6803F1500207F10C0311461846CD
:10556000FDF776FA7B68343339681846FCF798EB18
:1055700007F10C031846FDF77DFA06E007F10C036E
:105580001846FDF777FAFCF7E2EC1037BD4680BD10
:1055900080B483B000AF78607B681A460023136044
:1055A00053609360D360136153617B6818460C3776
:1055B000BD465DF8047B704780B582B000AF78606F
:1055C0007B681846FFF7E4FF7B6818460837BD463E
:1055D00080BD00BF90B587B000AF7860454A7B685A
:1055E0001A607B681C1D07F10C031846FCF762ED7E
:1055F00007F10C031A4647F6F831C0F201012046C4
:10560000FCF7CEEC07F10C031846FCF79AEC7B682C
:1056100003F11C0407F110031846FCF74CED07F1E9
:1056200010031A4647F6F831C0F201012046FCF794
:10563000B8EC07F110031846FCF782EC7B6803F125
:10564000340407F114031846FCF734ED07F1140392
:105650001A4647F6F831C0F201012046FCF7A0ECEB
:1056600007F114031846FCF76CEC7B684FF0FF322F
:10567000DA647B6850331846FFF79EFF7B68683317
:105680001846FEF733FC7B68002283F86C207868AC
:1056900000F090F87B6828E007F10C031846FCF74F
:1056A00050ECFCF754EC07F110031846FCF748ECFB
:1056B00014E007F114031846FCF742EC09E07B689C
:1056C00068331846FCF7B2FE7B6834331846FCF7A3
:1056D0007EEB7B681C331846FCF778EB7B68043361
:1056E0001846FCF774EBFCF732EC18461C37BD4645
:1056F00090BD00BF8C7D010080B582B000AF7860A6
:105700001A4A7B681A6047F6FC30C0F20100FCF7C9
:1057100052EB7B6868331846FCF79AFE0346002B71
:1057200004D07B6868331846FCF7A6EC7B686833C6
:105730001846FCF77BFE7B6834331846FCF746EBD3
:105740007B681C331846FCF742EB7B680433184631
:10575000FCF73CEB0023002B02D07868FCF7C0EB91
:105760007B6818460837BD4680BD00BF8C7D0100B0
:1057700080B582B000AF78607868FFF7BDFF7868C9
:10578000FCF7AEEB7B6818460837BD4680BD00BF0E
:1057900090B482B000AF786039603B681B684FEA14
:1057A000E3747A68C2E900347B6818460837BD465E
:1057B00090BC704780B586B000AF786000237B61F5
:1057C0007B69012B28DC786800F05AF80346002B2F
:1057D00009D047F62040C0F20100FCF7ECEA7868F7
:1057E00000F01EF818E047F63840C0F20100FCF760
:1057F000E2EA3C233B6107F1100207F1080311467E
:105800001846FFF7C5FF07F10803184600F03CFCF7
:105810007B6901337B61D3E71837BD4680BD00BF8C
:1058200090B589B000AF78607B6803F1680445F6F5
:10583000F913C0F201037B610023BB6107F10C0384
:1058400007F1140292E8030083E803007B68FB6120
:1058500007F11C0207F10C0107F10803184600F0DC
:105860008BFC07F1080319462046FEF719FB07F1E8
:1058700008031846FCF7DAFD00BF2437BD4690BD8B
:10588000B0B59AB000AF7860012387F8673007F1B0
:1058900064031846FCF70EEC07F1640207F10C03F1
:1058A00047F66841C0F201011846FCF77AEB07F1B0
:1058B00064031846FCF744EB07F124033C22002163
:1058C0001846FCF7A2EA07F10C031846FCF736EA83
:1058D000034640F602111846FCF71AEB02467B68B5
:1058E000DA647B68DB6C002B20DA002387F86730F2
:1058F00048F62863C0F202031C6807F10C0318463F
:10590000FCF71CEA0546FCF7C4EB03461B68184687
:10591000FCF73EEA03462A4647F67841C0F2010109
:105920002046FCF780EB97F867404BE07B68DB6C28
:1059300007F1600245F215411846FCF7AEEA3B6EEE
:1059400043F004033B667B68DB6C07F1600245F2C1
:1059500018411846FCF7A0EA7B68DB6C07F12402CB
:1059600011461846FCF78EEB7B6A23F4BD6323F0E7
:1059700003037B62BB6A23F00103BB623B6B23F42E
:10598000004323F04B033B63FB6A23F45C73FB622D
:10599000FB6A43F03003FB6207F124030D21184634
:1059A000FCF744EA07F124030D211846FCF79CE9B3
:1059B0007B68DB6C07F1240200211846FCF7BAEA89
:1059C00097F8674007F10C031846FCF700EA2346F6
:1059D0000DE007F164031846FCF7B2EAFCF7B6EAFB
:1059E00007F10C031846FCF7F2E9FCF7B0EA184699
:1059F0006837BD46B0BD00BF80B5ADF5FD5D84B074
:105A000000AF07F110030C3B186007F110030C3BCB
:105A10001B68D86C07F11003043B4FF4FD52194684
:105A2000FCF780E9034607F5FD5202F10C02136012
:105A300007F5FD5303F10C031B68002B14BF012372
:105A40000023DBB2002B0ED007F11001043907F15F
:105A500010030C3B07F5FD5202F10C0212681868A6
:105A600000F00AF8D1E700BF07F5FD571037BD4633
:105A700080BD00BF00000000F0B5C1B004AFF86009
:105A8000B9607A60BB6803F108027B68103B194675
:105A90001046FCF7E4E90346C7F8DC300023C7F8FA
:105AA000EC30D7F8DC30B3F904301A46D7F8EC30D4
:105AB0009A4240F30E82D7F8DC301A68D7F8EC30FF
:105AC0009B0013441B68C7F8D830D7F8D830DB6880
:105AD0001B681B6840F20172934240F0F481D7F8D2
:105AE000D830DB685B68C7F8D430D7F8D4301B698E
:105AF000C7F8E830D7F8E830002B00F0E481D7F899
:105B0000E8305B69002B0DD148F62863C0F2020330
:105B10001B684622012147F69040C0F20100FCF7C5
:105B200058EACAE1D7F8E8305B691B78002B00F02F
:105B3000C481D7F8E8305B691B78402B45D1D7F892
:105B4000E8301B681B681B781C46D7F8E8301B68D8
:105B50001B6801331B781D46D7F8E8301B681B68AB
:105B600002331B781E46D7F8E8301B681B680333E6
:105B70001B781A46D7F8E8301B681B6804331B787B
:105B80001946D7F8E8301B681B6805331B781846A0
:105B9000D7F8E8305B695B68002B04D047F6D84340
:105BA000C0F2010303E047F6E043C0F201030393B0
:105BB00002900191009233462A46214647F6E8407A
:105BC000C0F20100FCF7DEE877E1D7F8E8305B6966
:105BD0001B7803F07003502B08D0D7F8E8305B69CE
:105BE0001B7803F07003602B40F06781D7F8E83032
:105BF0005B691846FCF7C8E9B0EE407B87ED387B5F
:105C0000D7F8E8301B69002B05D0D7F8E8301B69BE
